{
  "contractName": "Billionare",
  "abi": [
    {
      "constant": true,
      "inputs": [
        {
          "name": "n_one",
          "type": "string"
        },
        {
          "name": "one",
          "type": "uint256"
        },
        {
          "name": "n_two",
          "type": "string"
        },
        {
          "name": "two",
          "type": "uint256"
        },
        {
          "name": "n_three",
          "type": "string"
        },
        {
          "name": "three",
          "type": "uint256"
        }
      ],
      "name": "check",
      "outputs": [
        {
          "name": "",
          "type": "string"
        }
      ],
      "payable": false,
      "stateMutability": "pure",
      "type": "function",
      "signature": "0x7bcd540f"
    },
    {
      "constant": false,
      "inputs": [
        {
          "name": "name",
          "type": "string"
        }
      ],
      "name": "commit",
      "outputs": [],
      "payable": false,
      "stateMutability": "nonpayable",
      "type": "function",
      "signature": "0x9867db74"
    },
    {
      "constant": true,
      "inputs": [],
      "name": "get_winner",
      "outputs": [
        {
          "name": "",
          "type": "string"
        }
      ],
      "payable": false,
      "stateMutability": "view",
      "type": "function",
      "signature": "0xbb4c4f1c"
    },
    {
      "constant": false,
      "inputs": [],
      "name": "clear_winner",
      "outputs": [
        {
          "name": "",
          "type": "uint256"
        }
      ],
      "payable": false,
      "stateMutability": "nonpayable",
      "type": "function",
      "signature": "0x1f59446f"
    }
  ],
  "bytecode": "0x608060405234801561001057600080fd5b5061045e806100206000396000f3006080604052600436106100615763ffffffff7c01000000000000000000000000000000000000000000000000000000006000350416631f59446f81146100665780637bcd540f1461008d5780639867db74146101e5578063bb4c4f1c14610240575b600080fd5b34801561007257600080fd5b5061007b610255565b60408051918252519081900360200190f35b34801561009957600080fd5b506040805160206004803580820135601f810184900484028501840190955284845261017094369492936024939284019190819084018382808284375050604080516020601f818a01358b0180359182018390048302840183018552818452989b8a359b909a90999401975091955091820193509150819084018382808284375050604080516020601f818a01358b0180359182018390048302840183018552818452989b8a359b909a90999401975091955091820193509150819084018382808284375094975050933594506102689350505050565b6040805160208082528351818301528351919283929083019185019080838360005b838110156101aa578181015183820152602001610192565b50505050905090810190601f1680156101d75780820380516001836020036101000a031916815260200191505b509250505060405180910390f35b3480156101f157600080fd5b506040805160206004803580820135601f810184900484028501840190955284845261023e9436949293602493928401919081908401838280828437509497506102a69650505050505050565b005b34801561024c57600080fd5b506101706102bd565b60006102618180610353565b5060005b90565b60608686851080159061027b5750828510155b156102835750845b8483101580156102935750868310155b1561029b5750825b979650505050505050565b80516102b990600090602084019061039a565b5050565b60008054604080516020601f60026000196101006001881615020190951694909404938401819004810282018101909252828152606093909290918301828280156103495780601f1061031e57610100808354040283529160200191610349565b820191906000526020600020905b81548152906001019060200180831161032c57829003601f168201915b5050505050905090565b50805460018160011615610100020316600290046000825580601f106103795750610397565b601f0160209004906000526020600020908101906103979190610418565b50565b828054600181600116156101000203166002900490600052602060002090601f016020900481019282601f106103db57805160ff1916838001178555610408565b82800160010185558215610408579182015b828111156104085782518255916020019190600101906103ed565b50610414929150610418565b5090565b61026591905b80821115610414576000815560010161041e5600a165627a7a72305820b0016e7685d6d3ddc927488f894e39bfb251ab044c1cca1fd7cd4fcad6a04a530029",
  "source": "pragma solidity ^0.4.22;\n\ncontract Billionare {\n    string winner;\n    function check(string n_one, uint one, string n_two, uint two, string n_three, uint three)\n    public\n    pure\n    returns (string){\n        string memory max = n_one;\n        if (two >= one && two >= three) {\n            max = n_two;\n        }\n        if (three >= two && three >= one) {\n            max = n_three;\n        }\n        \n        return max;\n    }\n    \n    function commit(string name) \n    public {\n        winner = name;\n    }\n    \n    function get_winner() public view returns(string) {\n        return winner;\n    }\n\n    function clear_winner() public returns(uint) {\n        delete winner;\n        return 0;\n    }\n}",
  "sourcePath": "/Users/adityapalepu/Startups/enigma/enigma-contract/contracts/Billionare.sol",
  "compiler": {
    "name": "solc",
    "version": "0.4.24+commit.e67f0147.Emscripten.clang"
  },
  "schemaVersion": "2.0.0",
  "updatedAt": "2018-08-07T00:06:08.172Z"
}