{
  "contractName": "CoinMixer",
  "abi": [
    {
      "constant": true,
      "inputs": [
        {
          "name": "",
          "type": "uint256"
        }
      ],
      "name": "deals",
      "outputs": [
        {
          "name": "organizer",
          "type": "address"
        },
        {
          "name": "title",
          "type": "bytes32"
        },
        {
          "name": "depositSum",
          "type": "uint256"
        },
        {
          "name": "numDeposits",
          "type": "uint256"
        },
        {
          "name": "startTime",
          "type": "uint256"
        },
        {
          "name": "depositInWei",
          "type": "uint256"
        },
        {
          "name": "numParticipants",
          "type": "uint256"
        },
        {
          "name": "status",
          "type": "uint256"
        }
      ],
      "payable": false,
      "stateMutability": "view",
      "type": "function",
      "signature": "0x03988f84"
    },
    {
      "constant": true,
      "inputs": [],
      "name": "enigma",
      "outputs": [
        {
          "name": "",
          "type": "address"
        }
      ],
      "payable": false,
      "stateMutability": "view",
      "type": "function",
      "signature": "0xb24fd5c5"
    },
    {
      "inputs": [
        {
          "name": "_enigmaAddress",
          "type": "address"
        }
      ],
      "payable": false,
      "stateMutability": "nonpayable",
      "type": "constructor",
      "signature": "constructor"
    },
    {
      "anonymous": false,
      "inputs": [
        {
          "indexed": true,
          "name": "user",
          "type": "address"
        },
        {
          "indexed": true,
          "name": "_dealId",
          "type": "uint32"
        },
        {
          "indexed": false,
          "name": "_startTime",
          "type": "uint256"
        },
        {
          "indexed": false,
          "name": "_title",
          "type": "bytes32"
        },
        {
          "indexed": false,
          "name": "_depositInWei",
          "type": "uint256"
        },
        {
          "indexed": false,
          "name": "_numParticipants",
          "type": "uint256"
        },
        {
          "indexed": false,
          "name": "_success",
          "type": "bool"
        },
        {
          "indexed": false,
          "name": "_err",
          "type": "string"
        }
      ],
      "name": "NewDeal",
      "type": "event",
      "signature": "0x8c2ac5e09d37c38a96fb20791b6ed6f2ccaaaf26c4115680b9257504d32bcdc3"
    },
    {
      "anonymous": false,
      "inputs": [
        {
          "indexed": true,
          "name": "_depositor",
          "type": "address"
        },
        {
          "indexed": true,
          "name": "_dealId",
          "type": "uint32"
        },
        {
          "indexed": false,
          "name": "_encryptedDestAddress",
          "type": "bytes"
        },
        {
          "indexed": false,
          "name": "_value",
          "type": "uint256"
        },
        {
          "indexed": false,
          "name": "_success",
          "type": "bool"
        },
        {
          "indexed": false,
          "name": "_err",
          "type": "string"
        }
      ],
      "name": "Deposit",
      "type": "event",
      "signature": "0xce7036acc3606aaa1ec3a2e7b4d13b3f4da34ee1eac298fc47524074de74a3bf"
    },
    {
      "anonymous": false,
      "inputs": [
        {
          "indexed": true,
          "name": "_dealId",
          "type": "uint32"
        },
        {
          "indexed": false,
          "name": "individualAmountInWei",
          "type": "uint256"
        },
        {
          "indexed": false,
          "name": "nbTransfers",
          "type": "uint32"
        },
        {
          "indexed": false,
          "name": "_success",
          "type": "bool"
        },
        {
          "indexed": false,
          "name": "_err",
          "type": "string"
        }
      ],
      "name": "Distribute",
      "type": "event",
      "signature": "0x61347ea145bc2f7f5814e4a2b5e70991c5c42870bfd4df70ab8ea10c41cfa89d"
    },
    {
      "anonymous": false,
      "inputs": [
        {
          "indexed": true,
          "name": "to",
          "type": "address"
        },
        {
          "indexed": false,
          "name": "value",
          "type": "uint256"
        }
      ],
      "name": "TransferredToken",
      "type": "event",
      "signature": "0x69baa4ba19fc045bffcd13735ba5201d924fe4c49c78c2e214b8f2559044d8b1"
    },
    {
      "anonymous": false,
      "inputs": [
        {
          "indexed": true,
          "name": "to",
          "type": "address"
        },
        {
          "indexed": false,
          "name": "value",
          "type": "uint256"
        }
      ],
      "name": "FailedTransfer",
      "type": "event",
      "signature": "0x3506b32cea6b36a739c1c2a71a9e1b3d6222104389c07219059fa6eb6d2e0563"
    },
    {
      "anonymous": false,
      "inputs": [
        {
          "indexed": true,
          "name": "_dealId",
          "type": "uint32"
        }
      ],
      "name": "DealFullyFunded",
      "type": "event",
      "signature": "0xa98c11bc69afe22b520fe800f82e421f9594d4f06259a7600711b75af05a43b9"
    },
    {
      "anonymous": false,
      "inputs": [
        {
          "indexed": true,
          "name": "_dealId",
          "type": "uint32"
        },
        {
          "indexed": false,
          "name": "_success",
          "type": "bool"
        }
      ],
      "name": "DealExecuted",
      "type": "event",
      "signature": "0xb37f76c8ba24e6a6d20d203681329001f2cacd9ab37c09d8b2aee57b8a31b874"
    },
    {
      "constant": false,
      "inputs": [
        {
          "name": "_title",
          "type": "bytes32"
        },
        {
          "name": "_depositInWei",
          "type": "uint256"
        },
        {
          "name": "_numParticipants",
          "type": "uint256"
        }
      ],
      "name": "newDeal",
      "outputs": [
        {
          "name": "",
          "type": "uint8"
        }
      ],
      "payable": false,
      "stateMutability": "nonpayable",
      "type": "function",
      "signature": "0xa06a5856"
    },
    {
      "constant": false,
      "inputs": [
        {
          "name": "dealId",
          "type": "uint32"
        },
        {
          "name": "encryptedDestAddress",
          "type": "bytes"
        }
      ],
      "name": "makeDeposit",
      "outputs": [
        {
          "name": "",
          "type": "uint8"
        }
      ],
      "payable": true,
      "stateMutability": "payable",
      "type": "function",
      "signature": "0x2aaf281b"
    },
    {
      "constant": true,
      "inputs": [
        {
          "name": "dealId",
          "type": "uint32"
        },
        {
          "name": "destAddresses",
          "type": "address[]"
        },
        {
          "name": "rand",
          "type": "uint256"
        }
      ],
      "name": "mixAddresses",
      "outputs": [
        {
          "name": "",
          "type": "uint32"
        },
        {
          "name": "",
          "type": "address[]"
        }
      ],
      "payable": false,
      "stateMutability": "pure",
      "type": "function",
      "signature": "0xdd20866e"
    },
    {
      "constant": false,
      "inputs": [
        {
          "name": "dealId",
          "type": "uint32"
        },
        {
          "name": "destAddresses",
          "type": "address[]"
        }
      ],
      "name": "distribute",
      "outputs": [
        {
          "name": "",
          "type": "uint8"
        }
      ],
      "payable": false,
      "stateMutability": "nonpayable",
      "type": "function",
      "signature": "0xd10e1e69"
    },
    {
      "constant": true,
      "inputs": [],
      "name": "listDeals",
      "outputs": [
        {
          "name": "",
          "type": "uint256[]"
        },
        {
          "name": "",
          "type": "uint256[]"
        },
        {
          "name": "",
          "type": "uint256[]"
        }
      ],
      "payable": false,
      "stateMutability": "view",
      "type": "function",
      "signature": "0x10f11e84"
    },
    {
      "constant": true,
      "inputs": [
        {
          "name": "_dealId",
          "type": "uint32"
        }
      ],
      "name": "dealStatus",
      "outputs": [
        {
          "name": "",
          "type": "bytes32"
        },
        {
          "name": "",
          "type": "uint256"
        },
        {
          "name": "",
          "type": "uint256"
        },
        {
          "name": "",
          "type": "uint256"
        },
        {
          "name": "",
          "type": "uint256"
        },
        {
          "name": "",
          "type": "uint256"
        }
      ],
      "payable": false,
      "stateMutability": "view",
      "type": "function",
      "signature": "0xdaefe738"
    },
    {
      "constant": true,
      "inputs": [
        {
          "name": "_dealId",
          "type": "uint32"
        }
      ],
      "name": "countEncryptedAddresses",
      "outputs": [
        {
          "name": "",
          "type": "uint256"
        }
      ],
      "payable": false,
      "stateMutability": "view",
      "type": "function",
      "signature": "0x3b833245"
    },
    {
      "constant": true,
      "inputs": [
        {
          "name": "_dealId",
          "type": "uint32"
        },
        {
          "name": "index",
          "type": "uint256"
        }
      ],
      "name": "getEncryptedAddress",
      "outputs": [
        {
          "name": "",
          "type": "bytes"
        }
      ],
      "payable": false,
      "stateMutability": "view",
      "type": "function",
      "signature": "0x57f5fc28"
    }
  ],
  "bytecode": "0x608060405234801561001057600080fd5b506040516020806116f0833981016040525160008054600160a060020a03909216600160a060020a031990921691909117905561169e806100526000396000f3006080604052600436106100a35763ffffffff7c010000000000000000000000000000000000000000000000000000000060003504166303988f8481146100a857806310f11e841461010b5780632aaf281b146101fe5780633b8332451461027957806357f5fc28146102a9578063a06a58561461033f578063b24fd5c51461035d578063d10e1e691461038e578063daefe738146103ee578063dd20866e1461043f575b600080fd5b3480156100b457600080fd5b506100c0600435610508565b60408051600160a060020a0390991689526020890197909752878701959095526060870193909352608086019190915260a085015260c084015260e083015251908190036101000190f35b34801561011757600080fd5b50610120610566565b60405180806020018060200180602001848103845287818151815260200191508051906020019060200280838360005b83811015610168578181015183820152602001610150565b50505050905001848103835286818151815260200191508051906020019060200280838360005b838110156101a757818101518382015260200161018f565b50505050905001848103825285818151815260200191508051906020019060200280838360005b838110156101e65781810151838201526020016101ce565b50505050905001965050505050505060405180910390f35b60408051602060046024803582810135601f810185900485028601850190965285855261025595833563ffffffff169536956044949193909101919081908401838280828437509497506106fc9650505050505050565b6040518082600181111561026557fe5b60ff16815260200191505060405180910390f35b34801561028557600080fd5b5061029763ffffffff60043516610ab0565b60408051918252519081900360200190f35b3480156102b557600080fd5b506102ca63ffffffff60043516602435610ae1565b6040805160208082528351818301528351919283929083019185019080838360005b838110156103045781810151838201526020016102ec565b50505050905090810190601f1680156103315780820380516001836020036101000a031916815260200191505b509250505060405180910390f35b34801561034b57600080fd5b50610255600435602435604435610bb1565b34801561036957600080fd5b50610372610eb2565b60408051600160a060020a039092168252519081900360200190f35b34801561039a57600080fd5b5060408051602060046024803582810135848102808701860190975280865261025596843563ffffffff1696369660449591949091019291829185019084908082843750949750610ec19650505050505050565b3480156103fa57600080fd5b5061040c63ffffffff6004351661114c565b604080519687526020870195909552858501939093526060850191909152608084015260a0830152519081900360c00190f35b34801561044b57600080fd5b506040805160206004602480358281013584810280870186019097528086526104a196843563ffffffff1696369660449591949091019291829185019084908082843750949750509335945061126a9350505050565b604051808363ffffffff1663ffffffff16815260200180602001828103825283818151815260200191508051906020019060200280838360005b838110156104f35781810151838201526020016104db565b50505050905001935050505060405180910390f35b600180548290811061051657fe5b60009182526020909120600b909102018054600182015460038301546004840154600585015460068601546007870154600a90970154600160a060020a0390961697509395929491939092909188565b60608060608060608060006001805490506040519080825280602002602001820160405280156105a0578160200160208202803883390190505b5060015460408051828152602080840282010190915291955080156105cf578160200160208202803883390190505b5060015460408051828152602080840282010190915291945080156105fe578160200160208202803883390190505b509150600090505b6001548110156106ef57600180548290811061061e57fe5b90600052602060002090600b0201600a0154848281518110151561063e57fe5b6020908102909101015260018054600091908390811061065a57fe5b600091825260208083203384526002600b909302019190910190526040902054111561069b576001838281518110151561069057fe5b602090810290910101525b60018054339190839081106106ac57fe5b60009182526020909120600b9091020154600160a060020a031614156106e757600182828151811015156106dc57fe5b602090810290910101525b600101610606565b5091959094509092509050565b600080348110610756576040805160e560020a62461bcd02815260206004820152601f60248201527f4465706f7369742076616c7565206d75737420626520706f7369746976652e00604482015290519081900360640190fd5b6001805463ffffffff861690811061076a57fe5b90600052602060002090600b0201600a015460001415156107d5576040805160e560020a62461bcd02815260206004820152601b60248201527f496c6c6567616c20737461746520666f72206465706f736974732e0000000000604482015290519081900360640190fd5b6001805463ffffffff86169081106107e957fe5b90600052602060002090600b0201905080600601543481151561080857fe5b0615610884576040805160e560020a62461bcd02815260206004820152602f60248201527f4465706f7369742076616c7565206d7573742062652061206d756c7469706c6560448201527f206f6620636c61696d2076616c75650000000000000000000000000000000000606482015290519081900360840190fd5b33600090815260028201602052604090205415610911576040805160e560020a62461bcd02815260206004820152602a60248201527f43616e6e6f74206465706f73697420747769636520776974682074686520736160448201527f6d65206164647265737300000000000000000000000000000000000000000000606482015290519081900360840190fd5b600381018054349081019091553360009081526002830160205260409020556004810154600882018054859290811061094657fe5b906000526020600020019080519060200190610963929190611388565b506004810180546001908101909155604080513460208083018290529282018490526080808352875190830152865163ffffffff89169433947fce7036acc3606aaa1ec3a2e7b4d13b3f4da34ee1eac298fc47524074de74a3bf948a949390918291606083019160a08401919088019080838360005b838110156109f15781810151838201526020016109d9565b50505050905090810190601f168015610a1e5780820380516001836020036101000a031916815260200191505b50928303905250600881527f616c6c20676f6f6400000000000000000000000000000000000000000000000060208201526040805191829003019350915050a36007810154600482015410610aa6576001600a82015560405163ffffffff8516907fa98c11bc69afe22b520fe800f82e421f9594d4f06259a7600711b75af05a43b990600090a25b5060009392505050565b600060018263ffffffff16815481101515610ac757fe5b600091825260209091206008600b90920201015492915050565b606060018363ffffffff16815481101515610af857fe5b90600052602060002090600b020160080182815481101515610b1657fe5b600091825260209182902001805460408051601f6002600019610100600187161502019094169390930492830185900485028101850190915281815292830182828015610ba45780601f10610b7957610100808354040283529160200191610ba4565b820191906000526020600020905b815481529060010190602001808311610b8757829003601f168201915b5050505050905092915050565b600180546000918190610bc690828101611406565b503360018263ffffffff16815481101515610bdd57fe5b90600052602060002090600b020160000160006101000a815481600160a060020a030219169083600160a060020a031602179055508460018263ffffffff16815481101515610c2857fe5b90600052602060002090600b02016001018160001916905550600060018263ffffffff16815481101515610c5857fe5b90600052602060002090600b020160030181905550600060018263ffffffff16815481101515610c8457fe5b90600052602060002090600b0201600401819055504260018263ffffffff16815481101515610caf57fe5b90600052602060002090600b0201600501819055508360018263ffffffff16815481101515610cda57fe5b90600052602060002090600b0201600601819055508260018263ffffffff16815481101515610d0557fe5b90600052602060002090600b02016007018190555082604051908082528060200260200182016040528015610d4e57816020015b6060815260200190600190039081610d395790505b506001805463ffffffff8416908110610d6357fe5b90600052602060002090600b02016008019080519060200190610d87929190611437565b5082604051908082528060200260200182016040528015610db2578160200160208202803883390190505b506001805463ffffffff8416908110610dc757fe5b90600052602060002090600b02016009019080519060200190610deb929190611490565b50600060018263ffffffff16815481101515610e0357fe5b6000918252602091829020600a600b90920201019190915560408051428152918201879052818101869052606082018590526001608083015260c060a083018190526008908301527f616c6c20676f6f6400000000000000000000000000000000000000000000000060e08301525163ffffffff83169133917f8c2ac5e09d37c38a96fb20791b6ed6f2ccaaaf26c4115680b9257504d32bcdc3918190036101000190a3506000949350505050565b600054600160a060020a031681565b600080548190600160a060020a03163314610edb57600080fd5b6001805463ffffffff8616908110610eef57fe5b90600052602060002090600b0201600a01546001141515610f5a576040805160e560020a62461bcd02815260206004820152601560248201527f4465616c206973206e6f742065786563757465642e0000000000000000000000604482015290519081900360640190fd5b8260018563ffffffff16815481101515610f7057fe5b90600052602060002090600b02016009019080519060200190610f94929190611490565b50600090505b6001805463ffffffff8616908110610fae57fe5b90600052602060002090600b020160090180549050811015611073576001805463ffffffff8616908110610fde57fe5b90600052602060002090600b020160090181815481101515610ffc57fe5b60009182526020909120015460018054600160a060020a03909216916108fc919063ffffffff881690811061102d57fe5b90600052602060002090600b0201600601549081150290604051600060405180830381858888f1935050505015801561106a573d6000803e3d6000fd5b50600101610f9a565b6001805463ffffffff8616917f61347ea145bc2f7f5814e4a2b5e70991c5c42870bfd4df70ab8ea10c41cfa89d91839081106110ab57fe5b90600052602060002090600b02016006015460018763ffffffff168154811015156110d257fe5b60009182526020918290206009600b9092020101546040805193845263ffffffff909116918301919091526001828201526080606083018190526008908301527f616c6c20676f6f6400000000000000000000000000000000000000000000000060a0830152519081900360c00190a25060009392505050565b60008060008060008060008060008060008060018d63ffffffff1681548110151561117357fe5b90600052602060002090600b020160010154955060018d63ffffffff1681548110151561119c57fe5b90600052602060002090600b020160070154945060018d63ffffffff168154811015156111c557fe5b90600052602060002090600b020160060154935060018d63ffffffff168154811015156111ee57fe5b90600052602060002090600b020160040154925060018d63ffffffff1681548110151561121757fe5b90600052602060002090600b020160030154915060018d63ffffffff1681548110151561124057fe5b600091825260209091206009600b909202010154959d949c50929a50909850965091945092505050565b815160009060609082805b600083111561137c57604080516001880181529051908190036020019020839081151561129e57fe5b06915086600184038151811015156112b257fe5b90602001906020020151600160a060020a031687838151811015156112d357fe5b60209081029091010151600160a060020a0316146113705786600184038151811015156112fc57fe5b906020019060200201519050868281518110151561131657fe5b90602001906020020151876001850381518110151561133157fe5b600160a060020a039092166020928302909101909101528651819088908490811061135857fe5b600160a060020a039092166020928302909101909101525b60001990920191611275565b50959694955050505050565b828054600181600116156101000203166002900490600052602060002090601f016020900481019282601f106113c957805160ff19168380011785556113f6565b828001600101855582156113f6579182015b828111156113f65782518255916020019190600101906113db565b506114029291506114fe565b5090565b81548183558181111561143257600b0281600b028360005260206000209182019101611432919061151b565b505050565b828054828255906000526020600020908101928215611484579160200282015b828111156114845782518051611474918491602090910190611388565b5091602001919060010190611457565b5061140292915061159b565b8280548282559060005260206000209081019282156114f2579160200282015b828111156114f2578251825473ffffffffffffffffffffffffffffffffffffffff1916600160a060020a039091161782556020909201916001909101906114b0565b506114029291506115be565b61151891905b808211156114025760008155600101611504565b90565b61151891905b8082111561140257805473ffffffffffffffffffffffffffffffffffffffff19168155600060018201819055600382018190556004820181905560058201819055600682018190556007820181905561157d60088301826115ef565b61158b600983016000611610565b506000600a820155600b01611521565b61151891905b808211156114025760006115b5828261162e565b506001016115a1565b61151891905b8082111561140257805473ffffffffffffffffffffffffffffffffffffffff191681556001016115c4565b508054600082559060005260206000209081019061160d919061159b565b50565b508054600082559060005260206000209081019061160d91906114fe565b50805460018160011615610100020316600290046000825580601f10611654575061160d565b601f01602090049060005260206000209081019061160d91906114fe5600a165627a7a72305820c9d7d013a52e1a122d56679b5152b0c5d0e71256079ef061fce7000b1692ad160029",
  "source": "pragma solidity ^0.4.22;\n\nimport \"./Enigma.sol\";\n\ncontract CoinMixer {\n\n    Enigma public enigma;\n\n    struct Deal {\n        address organizer;\n        bytes32 title;\n        mapping(address => uint) deposit;\n        uint depositSum;\n        uint numDeposits;\n\n        uint startTime;\n        uint depositInWei;\n        uint numParticipants;\n\n        bytes[] encryptedDestAddresses;\n        address[] destAddresses;\n\n        uint status; // 0: active; 1: funded; 2: executed; 3: cancelled\n    }\n\n    Deal[] public deals;\n\n    event NewDeal(address indexed user, uint32 indexed _dealId, uint _startTime, bytes32 _title, uint _depositInWei, uint _numParticipants, bool _success, string _err);\n    event Deposit(address indexed _depositor, uint32 indexed _dealId, bytes _encryptedDestAddress, uint _value, bool _success, string _err);\n    event Distribute(uint32 indexed _dealId, uint individualAmountInWei, uint32 nbTransfers, bool _success, string _err);\n\n    event TransferredToken(address indexed to, uint256 value);\n    event FailedTransfer(address indexed to, uint256 value);\n\n    event DealFullyFunded(uint32 indexed _dealId);\n    event DealExecuted(uint32 indexed _dealId, bool _success);\n\n    // TODO: switch to require() once it accepts a message parameter\n    enum ReturnValue {Ok, Error}\n\n    function CoinMixer(address _enigmaAddress) public {\n        enigma = Enigma(_enigmaAddress);\n    }\n\n    function newDeal(bytes32 _title, uint _depositInWei, uint _numParticipants)\n    public\n    returns (ReturnValue) {\n        uint32 dealId = uint32(deals.length);\n\n        deals.length++;\n        deals[dealId].organizer = msg.sender;\n        deals[dealId].title = _title;\n        deals[dealId].depositSum = 0;\n        deals[dealId].numDeposits = 0;\n        deals[dealId].startTime = now;\n        deals[dealId].depositInWei = _depositInWei;\n        deals[dealId].numParticipants = _numParticipants;\n        deals[dealId].encryptedDestAddresses = new bytes[](_numParticipants);\n        deals[dealId].destAddresses = new address[](_numParticipants);\n        deals[dealId].status = 0;\n        emit NewDeal(msg.sender, dealId, now, _title, _depositInWei, _numParticipants, true, \"all good\");\n\n        return ReturnValue.Ok;\n    }\n\n    function makeDeposit(uint32 dealId, bytes encryptedDestAddress)\n    public\n    payable\n    returns (ReturnValue){\n        require(msg.value > 0, \"Deposit value must be positive.\");\n        require(deals[dealId].status == 0, \"Illegal state for deposits.\");\n\n        Deal storage deal = deals[dealId];\n        require((msg.value % deal.depositInWei) == 0, \"Deposit value must be a multiple of claim value\");\n        require(deal.deposit[msg.sender] == 0, \"Cannot deposit twice with the same address\");\n\n        // actual deposit\n        deal.depositSum += msg.value;\n        deal.deposit[msg.sender] = msg.value;\n        deal.encryptedDestAddresses[deal.numDeposits] = encryptedDestAddress;\n        deal.numDeposits += 1;\n\n        emit Deposit(msg.sender, dealId, encryptedDestAddress, msg.value, true, \"all good\");\n\n        if (deal.numDeposits >= deal.numParticipants) {\n            deal.status = 1;\n            emit DealFullyFunded(dealId);\n        }\n        return ReturnValue.Ok;\n    }\n\n    function mixAddresses(uint32 dealId, address[] destAddresses, uint256 rand)\n    public\n    pure\n    returns (uint32, address[]) {\n        // Shuffling the specified address using a random seed.\n        // Doing a Fisher-Yates Shuffle with a single integer\n        // between 0 and 127. To get more numbers in the loop,\n        // we'll add 1 to our seed and hash it.\n        uint i = destAddresses.length;\n        while (i > 0) {\n            uint j = uint(sha3(rand + 1)) % i;\n\n            // Array swap\n            if (destAddresses[j] != destAddresses[i - 1]) {\n                address destAddress = destAddresses[i - 1];\n                destAddresses[i - 1] = destAddresses[j];\n                destAddresses[j] = destAddress;\n            }\n            i--;\n        }\n        return (dealId, destAddresses);\n    }\n\n    modifier onlyEnigma() {\n        require(msg.sender == address(enigma));\n        _;\n    }\n\n    function distribute(uint32 dealId, address[] destAddresses)\n    public\n    onlyEnigma()\n    returns (ReturnValue){\n        // Distribute the deposits to destination addresses\n        require(deals[dealId].status == 1, \"Deal is not executed.\");\n        deals[dealId].destAddresses = destAddresses;\n\n        for (uint i = 0; i < deals[dealId].destAddresses.length; i++) {\n            deals[dealId].destAddresses[i].transfer(deals[dealId].depositInWei);\n        }\n\n        emit Distribute(dealId, deals[dealId].depositInWei, uint32(deals[dealId].destAddresses.length), true, \"all good\");\n        return ReturnValue.Ok;\n    }\n\n    function listDeals() public view returns (uint[], uint[], uint[]) {\n        // A list of deals with their key properties\n        uint[] memory status = new uint[](deals.length);\n        uint[] memory participates = new uint[](deals.length);\n        uint[] memory organizes = new uint[](deals.length);\n\n        for (uint i = 0; i < deals.length; i++) {\n            status[i] = deals[i].status;\n\n            if (deals[i].deposit[msg.sender] > 0) {\n                participates[i] = 1;\n            }\n\n            if (deals[i].organizer == msg.sender) {\n                organizes[i] = 1;\n            }\n        }\n        return (status, participates, organizes);\n    }\n\n    function dealStatus(uint32 _dealId)\n    public\n    view\n    returns (bytes32, uint, uint, uint, uint, uint){\n        // Key attributes of a deal\n        bytes32 title = deals[_dealId].title;\n        uint numParticipants = deals[_dealId].numParticipants;\n        uint deposit = deals[_dealId].depositInWei;\n        uint numDeposits = deals[_dealId].numDeposits;\n        uint depositSum = deals[_dealId].depositSum;\n        uint numDestAddresses = deals[_dealId].destAddresses.length;\n\n        return (title, numParticipants, deposit, numDeposits, depositSum, numDestAddresses);\n    }\n\n    function countEncryptedAddresses(uint32 _dealId)\n    public view\n    returns (uint) {\n        // Count the addresses\n        return deals[_dealId].encryptedDestAddresses.length;\n    }\n\n    function getEncryptedAddress(uint32 _dealId, uint index)\n    public\n    view\n    returns (bytes) {\n        // Returns an array of encrypted addresses\n        return deals[_dealId].encryptedDestAddresses[index];\n    }\n}\n\n",
  "sourcePath": "/Users/adityapalepu/Startups/enigma/enigma-contract/contracts/CoinMixer.sol",
  "compiler": {
    "name": "solc",
    "version": "0.4.24+commit.e67f0147.Emscripten.clang"
  },
  "schemaVersion": "2.0.0",
  "updatedAt": "2018-08-07T00:06:08.133Z"
}