{
  "contractName": "MillionairesProblemFactory",
  "abi": [
    {
      "constant": true,
      "inputs": [],
      "name": "enigmaAddress",
      "outputs": [
        {
          "name": "",
          "type": "address"
        }
      ],
      "payable": false,
      "stateMutability": "view",
      "type": "function",
      "signature": "0x44f97995"
    },
    {
      "constant": true,
      "inputs": [
        {
          "name": "",
          "type": "uint256"
        }
      ],
      "name": "millionairesProblems",
      "outputs": [
        {
          "name": "",
          "type": "address"
        }
      ],
      "payable": false,
      "stateMutability": "view",
      "type": "function",
      "signature": "0xb825519a"
    },
    {
      "inputs": [
        {
          "name": "_enigmaAddress",
          "type": "address"
        }
      ],
      "payable": false,
      "stateMutability": "nonpayable",
      "type": "constructor",
      "signature": "constructor"
    },
    {
      "constant": false,
      "inputs": [],
      "name": "createNewMillionairesProblem",
      "outputs": [],
      "payable": false,
      "stateMutability": "nonpayable",
      "type": "function",
      "signature": "0x7da8a0e7"
    },
    {
      "constant": false,
      "inputs": [],
      "name": "getMillionairesProblems",
      "outputs": [
        {
          "name": "",
          "type": "address[]"
        }
      ],
      "payable": false,
      "stateMutability": "nonpayable",
      "type": "function",
      "signature": "0x37d7f938"
    }
  ],
  "bytecode": "0x608060405234801561001057600080fd5b50604051602080610853833981016040525160008054600160a060020a03909216600160a060020a0319909216919091179055610801806100526000396000f3006080604052600436106100615763ffffffff7c010000000000000000000000000000000000000000000000000000000060003504166337d7f938811461006657806344f97995146100cb5780637da8a0e7146100fc578063b825519a14610113575b600080fd5b34801561007257600080fd5b5061007b61012b565b60408051602080825283518183015283519192839290830191858101910280838360005b838110156100b757818101518382015260200161009f565b505050509050019250505060405180910390f35b3480156100d757600080fd5b506100e061018d565b60408051600160a060020a039092168252519081900360200190f35b34801561010857600080fd5b5061011161019c565b005b34801561011f57600080fd5b506100e0600435610245565b6060600180548060200260200160405190810160405280929190818152602001828054801561018357602002820191906000526020600020905b8154600160a060020a03168152600190910190602001808311610165575b5050505050905090565b600054600160a060020a031681565b60008054600160a060020a0316336101b261026d565b600160a060020a03928316815291166020820152604080519182900301906000f0801580156101e5573d6000803e3d6000fd5b506001805480820182556000919091527fb10e2d527612073b26eecdfd717e6a320cf44b4afac2b0732d9fcbe2b7fa0cf601805473ffffffffffffffffffffffffffffffffffffffff1916600160a060020a039290921691909117905550565b600180548290811061025357fe5b600091825260209091200154600160a060020a0316905081565b6040516105588061027e833901905600608060405234801561001057600080fd5b5060405160408061055883398101604052805160209091015160068054600160a060020a03928316600160a060020a031991821617909155600780549290931691161790556104f4806100646000396000f3006080604052600436106100a35763ffffffff7c010000000000000000000000000000000000000000000000000000000060003504166302f5852181146100a8578063191a09c6146100e357806342089b7a1461010a57806386e51c661461013b5780638da5cb5b14610161578063a8ff37c314610176578063b24fd5c51461018b578063cf5af16c146101a0578063db3ecb2514610203578063e96afa2514610224575b600080fd5b3480156100b457600080fd5b506100c06004356102a0565b60408051600160a060020a03909316835260208301919091528051918290030190f35b3480156100ef57600080fd5b506100f86102c9565b60408051918252519081900360200190f35b34801561011657600080fd5b5061011f6102cf565b60408051600160a060020a039092168252519081900360200190f35b34801561014757600080fd5b5061015f600160a060020a03600435166024356102de565b005b34801561016d57600080fd5b5061011f61033f565b34801561018257600080fd5b5061011f61034e565b34801561019757600080fd5b5061011f61035d565b3480156101ac57600080fd5b5060408051808201825261011f913691600491604491908390600290839083908082843750506040805180820182529497969581810195945092506002915083908390808284375093965061036c95505050505050565b34801561020f57600080fd5b5061015f600160a060020a0360043516610390565b34801561023057600080fd5b506102396103d6565b6040518083600260200280838360005b83811015610261578181015183820152602001610249565b5050505090500182600260200280838360005b8381101561028c578181015183820152602001610274565b505050509050019250505060405180910390f35b600181600281106102ad57fe5b600202018054600190910154600160a060020a03909116915082565b60005481565b600554600160a060020a031690565b600080546002116102ee57600080fd5b600054600190600281106102fe57fe5b60020201805473ffffffffffffffffffffffffffffffffffffffff1916600160a060020a039490941693909317835550600191820155600080549091019055565b600654600160a060020a031681565b600554600160a060020a031681565b600754600160a060020a031681565b80516020820151600091116103865750602082015161038a565b5081515b92915050565b600754600160a060020a031633146103a757600080fd5b6005805473ffffffffffffffffffffffffffffffffffffffff1916600160a060020a0392909216919091179055565b6103de610496565b6103e6610496565b6103ee610496565b6103f6610496565b60006104006104b1565b600091505b60005482101561048b576001826002811061041c57fe5b604080518082019091526002918202929092018054600160a060020a0316808452600190910154602084015291925085908490811061045757fe5b600160a060020a039092166020928302919091015281015183836002811061047b57fe5b6020020152600190910190610405565b509194909350915050565b60408051808201825290600290829080388339509192915050565b6040805180820190915260008082526020820152905600a165627a7a72305820730bc884e71d6f7b710d510ef2fe329be53da06073940b8c037b73d3d48976840029a165627a7a72305820edcb4a520d09276987b69675d30d7d403d295428c4516cca3f22d2dfb5be77de0029",
  "source": "pragma solidity ^0.4.17; \nimport \"./MillionairesProblem.sol\";\n\ncontract MillionairesProblemFactory {\n\taddress public enigmaAddress; \n\taddress[] public millionairesProblems; \n\n\tconstructor(address _enigmaAddress) {\n\t\tenigmaAddress = _enigmaAddress; \n\t}\n\n    function createNewMillionairesProblem() public {\n        address newMillionairesProblem = new MillionairesProblem(enigmaAddress, msg.sender); \n        millionairesProblems.push(newMillionairesProblem); \n    }\n\n    function getMillionairesProblems() public returns (address[]) {\n        return millionairesProblems; \n    }\n}",
  "sourcePath": "/home/node/enigma-contract/contracts/MillionairesProblemFactory.sol",
  "compiler": {
    "name": "solc",
    "version": "0.4.24+commit.e67f0147.Emscripten.clang"
  },
  "schemaVersion": "2.0.0",
  "updatedAt": "2018-08-23T14:16:58.327Z"
}