{
  "contractName": "MillionairesProblem",
  "abi": [
    {
      "constant": true,
      "inputs": [
        {
          "name": "",
          "type": "uint256"
        }
      ],
      "name": "millionaires",
      "outputs": [
        {
          "name": "name",
          "type": "address"
        },
        {
          "name": "netWorth",
          "type": "bytes32"
        }
      ],
      "payable": false,
      "stateMutability": "view",
      "type": "function"
    },
    {
      "constant": true,
      "inputs": [],
      "name": "numMillionaires",
      "outputs": [
        {
          "name": "",
          "type": "uint256"
        }
      ],
      "payable": false,
      "stateMutability": "view",
      "type": "function"
    },
    {
      "constant": true,
      "inputs": [],
      "name": "owner",
      "outputs": [
        {
          "name": "",
          "type": "address"
        }
      ],
      "payable": false,
      "stateMutability": "view",
      "type": "function"
    },
    {
      "constant": true,
      "inputs": [],
      "name": "richestMillionaire",
      "outputs": [
        {
          "name": "",
          "type": "address"
        }
      ],
      "payable": false,
      "stateMutability": "view",
      "type": "function"
    },
    {
      "constant": true,
      "inputs": [],
      "name": "enigma",
      "outputs": [
        {
          "name": "",
          "type": "address"
        }
      ],
      "payable": false,
      "stateMutability": "view",
      "type": "function"
    },
    {
      "inputs": [
        {
          "name": "_enigmaAddress",
          "type": "address"
        },
        {
          "name": "_owner",
          "type": "address"
        }
      ],
      "payable": false,
      "stateMutability": "nonpayable",
      "type": "constructor"
    },
    {
      "constant": false,
      "inputs": [
        {
          "name": "_name",
          "type": "address"
        },
        {
          "name": "_netWorth",
          "type": "bytes32"
        }
      ],
      "name": "stateNetWorth",
      "outputs": [],
      "payable": false,
      "stateMutability": "nonpayable",
      "type": "function"
    },
    {
      "constant": true,
      "inputs": [],
      "name": "getMillionaires",
      "outputs": [
        {
          "name": "",
          "type": "address[2]"
        },
        {
          "name": "",
          "type": "bytes32[2]"
        }
      ],
      "payable": false,
      "stateMutability": "view",
      "type": "function"
    },
    {
      "constant": true,
      "inputs": [],
      "name": "getRichestName",
      "outputs": [
        {
          "name": "",
          "type": "address"
        }
      ],
      "payable": false,
      "stateMutability": "view",
      "type": "function"
    },
    {
      "constant": true,
      "inputs": [
        {
          "name": "_names",
          "type": "address[2]"
        },
        {
          "name": "_netWorths",
          "type": "uint256[2]"
        }
      ],
      "name": "computeRichest",
      "outputs": [
        {
          "name": "",
          "type": "address"
        }
      ],
      "payable": false,
      "stateMutability": "pure",
      "type": "function"
    },
    {
      "constant": false,
      "inputs": [
        {
          "name": "_name",
          "type": "address"
        }
      ],
      "name": "setRichestName",
      "outputs": [],
      "payable": false,
      "stateMutability": "nonpayable",
      "type": "function"
    }
  ],
  "bytecode": "0x608060405234801561001057600080fd5b5060405160408061055883398101604052805160209091015160068054600160a060020a03928316600160a060020a031991821617909155600780549290931691161790556104f4806100646000396000f3006080604052600436106100a35763ffffffff7c010000000000000000000000000000000000000000000000000000000060003504166302f5852181146100a8578063191a09c6146100e357806342089b7a1461010a57806386e51c661461013b5780638da5cb5b14610161578063a8ff37c314610176578063b24fd5c51461018b578063cf5af16c146101a0578063db3ecb2514610203578063e96afa2514610224575b600080fd5b3480156100b457600080fd5b506100c06004356102a0565b60408051600160a060020a03909316835260208301919091528051918290030190f35b3480156100ef57600080fd5b506100f86102c9565b60408051918252519081900360200190f35b34801561011657600080fd5b5061011f6102cf565b60408051600160a060020a039092168252519081900360200190f35b34801561014757600080fd5b5061015f600160a060020a03600435166024356102de565b005b34801561016d57600080fd5b5061011f61033f565b34801561018257600080fd5b5061011f61034e565b34801561019757600080fd5b5061011f61035d565b3480156101ac57600080fd5b5060408051808201825261011f913691600491604491908390600290839083908082843750506040805180820182529497969581810195945092506002915083908390808284375093965061036c95505050505050565b34801561020f57600080fd5b5061015f600160a060020a0360043516610390565b34801561023057600080fd5b506102396103d6565b6040518083600260200280838360005b83811015610261578181015183820152602001610249565b5050505090500182600260200280838360005b8381101561028c578181015183820152602001610274565b505050509050019250505060405180910390f35b600181600281106102ad57fe5b600202018054600190910154600160a060020a03909116915082565b60005481565b600554600160a060020a031690565b600080546002116102ee57600080fd5b600054600190600281106102fe57fe5b60020201805473ffffffffffffffffffffffffffffffffffffffff1916600160a060020a039490941693909317835550600191820155600080549091019055565b600654600160a060020a031681565b600554600160a060020a031681565b600754600160a060020a031681565b80516020820151600091116103865750602082015161038a565b5081515b92915050565b600754600160a060020a031633146103a757600080fd5b6005805473ffffffffffffffffffffffffffffffffffffffff1916600160a060020a0392909216919091179055565b6103de610496565b6103e6610496565b6103ee610496565b6103f6610496565b60006104006104b1565b600091505b60005482101561048b576001826002811061041c57fe5b604080518082019091526002918202929092018054600160a060020a0316808452600190910154602084015291925085908490811061045757fe5b600160a060020a039092166020928302919091015281015183836002811061047b57fe5b6020020152600190910190610405565b509194909350915050565b60408051808201825290600290829080388339509192915050565b6040805180820190915260008082526020820152905600a165627a7a72305820730bc884e71d6f7b710d510ef2fe329be53da06073940b8c037b73d3d48976840029",
  "source": "pragma solidity ^0.4.17; \n\n// Import Enigma contract\nimport \"./Enigma.sol\";\n\ncontract MillionairesProblem {\n\t// Millionaire struct containing name and netWorth properties\n\tstruct Millionaire {\n\t\taddress name; \n\t\tbytes32 netWorth; \n\t}\n\n\tuint public numMillionaires; \n\tMillionaire[2] public millionaires; \n\taddress public richestMillionaire; \n\taddress public owner;\n\tEnigma public enigma;\n\n\tconstructor(address _enigmaAddress, address _owner) public {\n\t\towner = _owner; \n\t\tenigma = Enigma(_enigmaAddress);\n\t}\n\n\t// Max of two millionaires in any comparison\n\tmodifier maxMillionaires() {\n\t\trequire(numMillionaires < 2); \n\t\t_; \n\t} \n\n\t// Modifier to ensure only enigma contract can call function\n\tmodifier onlyEnigma() {\n        require(msg.sender == address(enigma));\n        _;\n    }\n\n    // Function to send millionaire's name and encrypted net worth to contract storage\n\tfunction stateNetWorth(address _name, bytes32 _netWorth) public maxMillionaires() {\n\t\tMillionaire storage currentMillionaire = millionaires[numMillionaires]; \n\t\tcurrentMillionaire.name = _name; \n\t\tcurrentMillionaire.netWorth = _netWorth; \n\t\tnumMillionaires++; \n\t}\n\n\t// Function to return tuple of lists containing millionaire names and encrypted net worths\n\tfunction getMillionaires() public view returns (address[2], bytes32[2]) {\n\t\taddress[2] memory names; \n\t\tbytes32[2] memory netWorths; \n\t\tfor (uint i = 0; i < numMillionaires; i++) {\n\t\t\tMillionaire memory currentMillionaire = millionaires[i]; \n\t\t\tnames[i] = currentMillionaire.name; \n\t\t\tnetWorths[i] = currentMillionaire.netWorth; \n\t\t}\n\t\treturn (names, netWorths); \n\t}\n\n\tfunction getRichestName() public view returns (address) {\n\t\treturn richestMillionaire; \n\t}\n\t\n\t// CALLABLE FUNCTION run in SGX to decipher encrypted net worths to determine richest millionaire\n\tfunction computeRichest(address[2] _names, uint[2] _netWorths) public pure returns (address) {\n\t\tif (_netWorths[1] >= _netWorths[0]) {\n\t\t\treturn _names[1]; \n\t\t}\n\t\treturn _names[0]; \n\t}\n\n\t// CALLBACK FUNCTION to change contract state tracking richest millionaire's name\n\tfunction setRichestName(address _name) public onlyEnigma() {\n\t\trichestMillionaire = _name; \n\t}\n}",
  "sourcePath": "/home/node/enigma-contract/contracts/MillionairesProblem.sol",
  "compiler": {
    "name": "solc",
    "version": "0.4.24+commit.e67f0147.Emscripten.clang"
  },
  "schemaVersion": "2.0.0",
  "updatedAt": "2018-08-23T14:16:54.984Z"
}