{
  "contractName": "MillionairesProblem",
  "abi": [
    {
      "constant": true,
      "inputs": [],
      "name": "numMillionaires",
      "outputs": [
        {
          "name": "",
          "type": "uint256"
        }
      ],
      "payable": false,
      "stateMutability": "view",
      "type": "function"
    },
    {
      "constant": true,
      "inputs": [],
      "name": "owner",
      "outputs": [
        {
          "name": "",
          "type": "address"
        }
      ],
      "payable": false,
      "stateMutability": "view",
      "type": "function"
    },
    {
      "constant": true,
      "inputs": [],
      "name": "richestMillionaire",
      "outputs": [
        {
          "name": "",
          "type": "address"
        }
      ],
      "payable": false,
      "stateMutability": "view",
      "type": "function"
    },
    {
      "constant": true,
      "inputs": [],
      "name": "enigma",
      "outputs": [
        {
          "name": "",
          "type": "address"
        }
      ],
      "payable": false,
      "stateMutability": "view",
      "type": "function"
    },
    {
      "inputs": [
        {
          "name": "_enigmaAddress",
          "type": "address"
        },
        {
          "name": "_owner",
          "type": "address"
        }
      ],
      "payable": false,
      "stateMutability": "nonpayable",
      "type": "constructor"
    },
    {
      "anonymous": false,
      "inputs": [],
      "name": "CallbackFinished",
      "type": "event"
    },
    {
      "constant": false,
      "inputs": [
        {
          "name": "_encryptedAddress",
          "type": "bytes"
        },
        {
          "name": "_encryptedNetWorth",
          "type": "bytes"
        }
      ],
      "name": "addMillionaire",
      "outputs": [],
      "payable": false,
      "stateMutability": "nonpayable",
      "type": "function"
    },
    {
      "constant": true,
      "inputs": [
        {
          "name": "index",
          "type": "uint256"
        }
      ],
      "name": "getInfoForMillionaire",
      "outputs": [
        {
          "name": "",
          "type": "bytes"
        },
        {
          "name": "",
          "type": "bytes"
        }
      ],
      "payable": false,
      "stateMutability": "view",
      "type": "function"
    },
    {
      "constant": true,
      "inputs": [
        {
          "name": "_addresses",
          "type": "address[]"
        },
        {
          "name": "_netWorths",
          "type": "uint256[]"
        }
      ],
      "name": "computeRichest",
      "outputs": [
        {
          "name": "",
          "type": "address"
        }
      ],
      "payable": false,
      "stateMutability": "pure",
      "type": "function"
    },
    {
      "constant": false,
      "inputs": [
        {
          "name": "_address",
          "type": "address"
        }
      ],
      "name": "setRichestAddress",
      "outputs": [],
      "payable": false,
      "stateMutability": "nonpayable",
      "type": "function"
    }
  ],
  "bytecode": "0x608060405234801561001057600080fd5b506040516040806107ba83398101604052805160209091015160038054600160a060020a03928316600160a060020a03199182161790915560048054929093169116179055610756806100646000396000f30060806040526004361061008d5763ffffffff7c0100000000000000000000000000000000000000000000000000000000600035041663191a09c681146100925780633ad79816146100b957806347ce9402146100dc5780636c2506b7146101d25780638da5cb5b146102695780639f7ce8671461029a578063a8ff37c314610328578063b24fd5c51461033d575b600080fd5b34801561009e57600080fd5b506100a7610352565b60408051918252519081900360200190f35b3480156100c557600080fd5b506100da600160a060020a0360043516610358565b005b3480156100e857600080fd5b506100f46004356103c3565b604051808060200180602001838103835285818151815260200191508051906020019080838360005b8381101561013557818101518382015260200161011d565b50505050905090810190601f1680156101625780820380516001836020036101000a031916815260200191505b50838103825284518152845160209182019186019080838360005b8381101561019557818101518382015260200161017d565b50505050905090810190601f1680156101c25780820380516001836020036101000a031916815260200191505b5094505050505060405180910390f35b3480156101de57600080fd5b506040805160206004803580820135601f81018490048402850184019095528484526100da94369492936024939284019190819084018382808284375050604080516020601f89358b018035918201839004830284018301909452808352979a99988101979196509182019450925082915084018382808284375094975061053f9650505050505050565b34801561027557600080fd5b5061027e6105d5565b60408051600160a060020a039092168252519081900360200190f35b3480156102a657600080fd5b506040805160206004803580820135838102808601850190965280855261027e95369593946024949385019291829185019084908082843750506040805187358901803560208181028481018201909552818452989b9a9989019892975090820195509350839250850190849080828437509497506105e49650505050505050565b34801561033457600080fd5b5061027e61065a565b34801561034957600080fd5b5061027e610669565b60005481565b600454600160a060020a0316331461036f57600080fd5b6002805473ffffffffffffffffffffffffffffffffffffffff1916600160a060020a0383161790556040517ffa6b2fa56bfe305041a2170756c9ee87984e5078d2533f89642c6ded5ff6a90290600090a150565b6060806103ce610678565b6060806001868154811015156103e057fe5b60009182526020918290206040805160029384029092018054600181161561010002600019011693909304601f8101859004909402820160609081018252908201848152919384929184919084018282801561047d5780601f106104525761010080835404028352916020019161047d565b820191906000526020600020905b81548152906001019060200180831161046057829003601f168201915b50505050508152602001600182018054600181600116156101000203166002900480601f01602080910402602001604051908101604052809291908181526020018280546001816001161561010002031660029004801561051f5780601f106104f45761010080835404028352916020019161051f565b820191906000526020600020905b81548152906001019060200180831161050257829003601f168201915b505050919092525050815160209092015191989197509095505050505050565b610547610678565b5060408051808201909152828152602080820183905260018054808201808355600092909252835180519293859360029093027fb10e2d527612073b26eecdfd717e6a320cf44b4afac2b0732d9fcbe2b7fa0cf601926105aa928492019061068f565b5060208281015180516105c3926001850192019061068f565b50506000805460010190555050505050565b600354600160a060020a031681565b60008080805b84518110156106375781858281518110151561060257fe5b602090810290910101511061062f57848181518110151561061f57fe5b9060200190602002015191508092505b6001016105ea565b858381518110151561064557fe5b90602001906020020151935050505092915050565b600254600160a060020a031681565b600454600160a060020a031681565b604080518082019091526060808252602082015290565b828054600181600116156101000203166002900490600052602060002090601f016020900481019282601f106106d057805160ff19168380011785556106fd565b828001600101855582156106fd579182015b828111156106fd5782518255916020019190600101906106e2565b5061070992915061070d565b5090565b61072791905b808211156107095760008155600101610713565b905600a165627a7a72305820ba150349fda1bcc1843a75eef30f435fafc57cb9a38bb6d1d7e85ae0f09d64ce0029",
  "source": "pragma solidity ^0.4.17; \n\n// Import Enigma contract\nimport \"./Enigma.sol\";\n\ncontract MillionairesProblem {\n\t// Stores number of millionaires that have joined and stated their net worths\n\tuint public numMillionaires; \n\n\t// Stores Millionaire structs (defined below)\n\tMillionaire[] millionaires; \n\n\t// Stores address of richest millionaire, will be set in callback function below\n\taddress public richestMillionaire; \n\n\taddress public owner;\n\tEnigma public enigma;\n\n\t// Millionaire struct which holds encrypted address and net worth\n\tstruct Millionaire {\n\t\tbytes myAddress; \n\t\tbytes myNetWorth; \n\t}\n\n\t// Event to be emitted upon callback completion that will be watched from front end\n\tevent CallbackFinished(); \n\n\t// Modifier to ensure only enigma contract can call function\n\tmodifier onlyEnigma() {\n        require(msg.sender == address(enigma));\n        _;\n    }\n\n    // Constructor called when new contract is deployed\n\tconstructor(address _enigmaAddress, address _owner) public {\n\t\towner = _owner; \n\t\tenigma = Enigma(_enigmaAddress);\n\t}\n\n\t// Function to add a new millionaire with encrypted address and net worth arguments\n    function addMillionaire(bytes _encryptedAddress, bytes _encryptedNetWorth) public {\n    \tMillionaire memory millionaire = Millionaire({\n    \t\tmyAddress: _encryptedAddress, \n    \t\tmyNetWorth: _encryptedNetWorth\n    \t}); \n    \tmillionaires.push(millionaire); \n    \tnumMillionaires++; \n    }\n\n    // Return encrypted address and net worth for a particular millionaire\n    function getInfoForMillionaire(uint index) public view returns (bytes, bytes) {\n    \tMillionaire memory millionaire = millionaires[index]; \n    \tbytes memory encryptedAddress = millionaire.myAddress; \n    \tbytes memory encryptedNetWorth = millionaire.myNetWorth; \n    \treturn (encryptedAddress, encryptedNetWorth); \n    }\n\t\n\t// CALLABLE FUNCTION run in SGX to decipher encrypted net worths to determine richest millionaire\n\tfunction computeRichest(address[] _addresses, uint[] _netWorths) public pure returns (address) {\n\t\tuint maxIndex; \n\t\tuint maxValue; \n\t\tfor (uint i = 0; i < _netWorths.length; i++) {\n\t\t\tif (_netWorths[i] >= maxValue) {\n\t\t\t\tmaxValue = _netWorths[i]; \n\t\t\t\tmaxIndex = i; \n\t\t\t}\n\t\t}\n\t\treturn _addresses[maxIndex]; \n\t}\n\n\t// CALLBACK FUNCTION to change contract state tracking richest millionaire's name\n\tfunction setRichestAddress(address _address) public onlyEnigma() {\n\t\trichestMillionaire = _address; \n\t\temit CallbackFinished(); \n\t}\n}",
  "sourcePath": "/Users/adityapalepu/Startups/enigma/enigma-contract/contracts/MillionairesProblem.sol",
  "compiler": {
    "name": "solc",
    "version": "0.4.24+commit.e67f0147.Emscripten.clang"
  },
  "schemaVersion": "2.0.0",
  "updatedAt": "2018-08-30T16:43:28.646Z"
}