{
  "contractName": "MillionairesProblem",
  "abi": [
    {
      "constant": true,
      "inputs": [
        {
          "name": "",
          "type": "uint256"
        }
      ],
      "name": "millionaires",
      "outputs": [
        {
          "name": "name",
          "type": "bytes32"
        },
        {
          "name": "netWorth",
          "type": "bytes32"
        }
      ],
      "payable": false,
      "stateMutability": "view",
      "type": "function"
    },
    {
      "constant": true,
      "inputs": [],
      "name": "numMillionaires",
      "outputs": [
        {
          "name": "",
          "type": "uint256"
        }
      ],
      "payable": false,
      "stateMutability": "view",
      "type": "function"
    },
    {
      "constant": true,
      "inputs": [],
      "name": "owner",
      "outputs": [
        {
          "name": "",
          "type": "address"
        }
      ],
      "payable": false,
      "stateMutability": "view",
      "type": "function"
    },
    {
      "constant": true,
      "inputs": [],
      "name": "richestMillionaire",
      "outputs": [
        {
          "name": "",
          "type": "bytes32"
        }
      ],
      "payable": false,
      "stateMutability": "view",
      "type": "function"
    },
    {
      "constant": true,
      "inputs": [],
      "name": "enigma",
      "outputs": [
        {
          "name": "",
          "type": "address"
        }
      ],
      "payable": false,
      "stateMutability": "view",
      "type": "function"
    },
    {
      "inputs": [
        {
          "name": "_enigmaAddress",
          "type": "address"
        },
        {
          "name": "_owner",
          "type": "address"
        }
      ],
      "payable": false,
      "stateMutability": "nonpayable",
      "type": "constructor"
    },
    {
      "constant": false,
      "inputs": [
        {
          "name": "_name",
          "type": "bytes32"
        },
        {
          "name": "_netWorth",
          "type": "bytes32"
        }
      ],
      "name": "stateNetWorth",
      "outputs": [],
      "payable": false,
      "stateMutability": "nonpayable",
      "type": "function"
    },
    {
      "constant": true,
      "inputs": [],
      "name": "getMillionaires",
      "outputs": [
        {
          "name": "",
          "type": "bytes32[2]"
        },
        {
          "name": "",
          "type": "bytes32[2]"
        }
      ],
      "payable": false,
      "stateMutability": "view",
      "type": "function"
    },
    {
      "constant": true,
      "inputs": [],
      "name": "getRichestAddress",
      "outputs": [
        {
          "name": "",
          "type": "bytes32"
        }
      ],
      "payable": false,
      "stateMutability": "view",
      "type": "function"
    },
    {
      "constant": true,
      "inputs": [
        {
          "name": "_names",
          "type": "bytes32[2]"
        },
        {
          "name": "_netWorths",
          "type": "bytes32[2]"
        }
      ],
      "name": "computeRichest",
      "outputs": [
        {
          "name": "",
          "type": "bytes32"
        }
      ],
      "payable": false,
      "stateMutability": "pure",
      "type": "function"
    },
    {
      "constant": false,
      "inputs": [
        {
          "name": "_name",
          "type": "bytes32"
        }
      ],
      "name": "setRichestAddress",
      "outputs": [],
      "payable": false,
      "stateMutability": "nonpayable",
      "type": "function"
    }
  ],
  "bytecode": "0x608060405234801561001057600080fd5b506040516040806104f183398101604052805160209091015160068054600160a060020a03928316600160a060020a0319918216179091556007805492909316911617905561048d806100646000396000f3006080604052600436106100a35763ffffffff7c010000000000000000000000000000000000000000000000000000000060003504166302f5852181146100a8578063191a09c6146100d957806382e0a089146101005780638da5cb5b146101155780638f231201146101535780639087ccf01461016d578063a8ff37c314610188578063b24fd5c51461019d578063ca057d30146101b2578063e96afa2514610215575b600080fd5b3480156100b457600080fd5b506100c0600435610291565b6040805192835260208301919091528051918290030190f35b3480156100e557600080fd5b506100ee6102b0565b60408051918252519081900360200190f35b34801561010c57600080fd5b506100ee6102b6565b34801561012157600080fd5b5061012a6102bc565b6040805173ffffffffffffffffffffffffffffffffffffffff9092168252519081900360200190f35b34801561015f57600080fd5b5061016b6004356102d8565b005b34801561017957600080fd5b5061016b600435602435610301565b34801561019457600080fd5b506100ee61033a565b3480156101a957600080fd5b5061012a610340565b3480156101be57600080fd5b506040805180820182526100ee913691600491604491908390600290839083908082843750506040805180820182529497969581810195945092506002915083908390808284375093965061035c95505050505050565b34801561022157600080fd5b5061022a610380565b6040518083600260200280838360005b8381101561025257818101518382015260200161023a565b5050505090500182600260200280838360005b8381101561027d578181015183820152602001610265565b505050509050019250505060405180910390f35b6001816002811061029e57fe5b60020201805460019091015490915082565b60005481565b60055490565b60065473ffffffffffffffffffffffffffffffffffffffff1681565b60075473ffffffffffffffffffffffffffffffffffffffff1633146102fc57600080fd5b600555565b6000805460021161031157600080fd5b6000546001906002811061032157fe5b6002020192835550600191820155600080549091019055565b60055481565b60075473ffffffffffffffffffffffffffffffffffffffff1681565b80516020820151600091116103765750602082015161037a565b5081515b92915050565b61038861042f565b61039061042f565b61039861042f565b6103a061042f565b60006103aa61044a565b600091505b60005482101561042457600182600281106103c657fe5b60408051808201909152600291820292909201805480845260019091015460208401529192508590849081106103f857fe5b6020908102919091019190915281015183836002811061041457fe5b60200201526001909101906103af565b509194909350915050565b60408051808201825290600290829080388339509192915050565b6040805180820190915260008082526020820152905600a165627a7a72305820cd566c051b63af5e5691c7337c0f4e64f44c4764f2171fb77f1b31506cb249050029",
  "source": "pragma solidity ^0.4.17; \n\n// Import Enigma contract\nimport \"./Enigma.sol\";\n\ncontract MillionairesProblem {\n\t// Millionaire struct containing name and netWorth properties\n\tstruct Millionaire {\n\t\tbytes32 name; \n\t\tbytes32 netWorth; \n\t}\n\n\tuint public numMillionaires; \n\tMillionaire[2] public millionaires; \n\tbytes32 public richestMillionaire; \n\taddress public owner;\n\tEnigma public enigma;\n\n\tconstructor(address _enigmaAddress, address _owner) public {\n\t\towner = _owner; \n\t\tenigma = Enigma(_enigmaAddress);\n\t}\n\n\t// Max of two millionaires in any comparison\n\tmodifier maxMillionaires() {\n\t\trequire(numMillionaires < 2); \n\t\t_; \n\t} \n\n\t// Modifier to ensure only enigma contract can call function\n\tmodifier onlyEnigma() {\n        require(msg.sender == address(enigma));\n        _;\n    }\n\n    // Function to send millionaire's name and encrypted net worth to contract storage\n\tfunction stateNetWorth(bytes32 _name, bytes32 _netWorth) public maxMillionaires() {\n\t\tMillionaire storage currentMillionaire = millionaires[numMillionaires]; \n\t\tcurrentMillionaire.name = _name; \n\t\tcurrentMillionaire.netWorth = _netWorth; \n\t\tnumMillionaires++; \n\t}\n\n\t// Function to return tuple of lists containing millionaire names and encrypted net worths\n\tfunction getMillionaires() public view returns (bytes32[2], bytes32[2]) {\n\t\tbytes32[2] memory names; \n\t\tbytes32[2] memory netWorths; \n\t\tfor (uint i = 0; i < numMillionaires; i++) {\n\t\t\tMillionaire memory currentMillionaire = millionaires[i]; \n\t\t\tnames[i] = currentMillionaire.name; \n\t\t\tnetWorths[i] = currentMillionaire.netWorth; \n\t\t}\n\t\treturn (names, netWorths); \n\t}\n\n\tfunction getRichestAddress() public view returns (bytes32) {\n\t\treturn richestMillionaire; \n\t}\n\t\n\t// CALLABLE FUNCTION run in SGX to decipher encrypted net worths to determine richest millionaire\n\tfunction computeRichest(bytes32[2] _names, bytes32[2] _netWorths) public pure returns (bytes32) {\n\t\tif (_netWorths[1] >= _netWorths[0]) {\n\t\t\treturn _names[1]; \n\t\t}\n\t\treturn _names[0]; \n\t}\n\n\t// CALLBACK FUNCTION to change contract state tracking richest millionaire's name\n\tfunction setRichestAddress(bytes32 _name) public onlyEnigma() {\n\t\trichestMillionaire = _name; \n\t}\n}",
  "sourcePath": "/Users/adityapalepu/Startups/enigma/enigma-contract/contracts/MillionairesProblem.sol",
  "compiler": {
    "name": "solc",
    "version": "0.4.24+commit.e67f0147.Emscripten.clang"
  },
  "schemaVersion": "2.0.0",
  "updatedAt": "2018-08-07T00:05:58.749Z"
}