{
  "contractName": "MillionairesProblemFactory",
  "abi": [
    {
      "constant": true,
      "inputs": [],
      "name": "enigmaAddress",
      "outputs": [
        {
          "name": "",
          "type": "address"
        }
      ],
      "payable": false,
      "stateMutability": "view",
      "type": "function",
      "signature": "0x44f97995"
    },
    {
      "constant": true,
      "inputs": [
        {
          "name": "",
          "type": "uint256"
        }
      ],
      "name": "millionairesProblems",
      "outputs": [
        {
          "name": "",
          "type": "address"
        }
      ],
      "payable": false,
      "stateMutability": "view",
      "type": "function",
      "signature": "0xb825519a"
    },
    {
      "inputs": [
        {
          "name": "_enigmaAddress",
          "type": "address"
        }
      ],
      "payable": false,
      "stateMutability": "nonpayable",
      "type": "constructor",
      "signature": "constructor"
    },
    {
      "constant": false,
      "inputs": [],
      "name": "createNewMillionairesProblem",
      "outputs": [],
      "payable": false,
      "stateMutability": "nonpayable",
      "type": "function",
      "signature": "0x7da8a0e7"
    },
    {
      "constant": false,
      "inputs": [],
      "name": "getMillionairesProblems",
      "outputs": [
        {
          "name": "",
          "type": "address[]"
        }
      ],
      "payable": false,
      "stateMutability": "nonpayable",
      "type": "function",
      "signature": "0x37d7f938"
    }
  ],
  "bytecode": "0x608060405234801561001057600080fd5b506040516020806107ec833981016040525160008054600160a060020a03909216600160a060020a031990921691909117905561079a806100526000396000f3006080604052600436106100615763ffffffff7c010000000000000000000000000000000000000000000000000000000060003504166337d7f938811461006657806344f97995146100cb5780637da8a0e7146100fc578063b825519a14610113575b600080fd5b34801561007257600080fd5b5061007b61012b565b60408051602080825283518183015283519192839290830191858101910280838360005b838110156100b757818101518382015260200161009f565b505050509050019250505060405180910390f35b3480156100d757600080fd5b506100e061018d565b60408051600160a060020a039092168252519081900360200190f35b34801561010857600080fd5b5061011161019c565b005b34801561011f57600080fd5b506100e0600435610245565b6060600180548060200260200160405190810160405280929190818152602001828054801561018357602002820191906000526020600020905b8154600160a060020a03168152600190910190602001808311610165575b5050505050905090565b600054600160a060020a031681565b60008054600160a060020a0316336101b261026d565b600160a060020a03928316815291166020820152604080519182900301906000f0801580156101e5573d6000803e3d6000fd5b506001805480820182556000919091527fb10e2d527612073b26eecdfd717e6a320cf44b4afac2b0732d9fcbe2b7fa0cf601805473ffffffffffffffffffffffffffffffffffffffff1916600160a060020a039290921691909117905550565b600180548290811061025357fe5b600091825260209091200154600160a060020a0316905081565b6040516104f18061027e833901905600608060405234801561001057600080fd5b506040516040806104f183398101604052805160209091015160068054600160a060020a03928316600160a060020a0319918216179091556007805492909316911617905561048d806100646000396000f3006080604052600436106100a35763ffffffff7c010000000000000000000000000000000000000000000000000000000060003504166302f5852181146100a8578063191a09c6146100d957806382e0a089146101005780638da5cb5b146101155780638f231201146101535780639087ccf01461016d578063a8ff37c314610188578063b24fd5c51461019d578063ca057d30146101b2578063e96afa2514610215575b600080fd5b3480156100b457600080fd5b506100c0600435610291565b6040805192835260208301919091528051918290030190f35b3480156100e557600080fd5b506100ee6102b0565b60408051918252519081900360200190f35b34801561010c57600080fd5b506100ee6102b6565b34801561012157600080fd5b5061012a6102bc565b6040805173ffffffffffffffffffffffffffffffffffffffff9092168252519081900360200190f35b34801561015f57600080fd5b5061016b6004356102d8565b005b34801561017957600080fd5b5061016b600435602435610301565b34801561019457600080fd5b506100ee61033a565b3480156101a957600080fd5b5061012a610340565b3480156101be57600080fd5b506040805180820182526100ee913691600491604491908390600290839083908082843750506040805180820182529497969581810195945092506002915083908390808284375093965061035c95505050505050565b34801561022157600080fd5b5061022a610380565b6040518083600260200280838360005b8381101561025257818101518382015260200161023a565b5050505090500182600260200280838360005b8381101561027d578181015183820152602001610265565b505050509050019250505060405180910390f35b6001816002811061029e57fe5b60020201805460019091015490915082565b60005481565b60055490565b60065473ffffffffffffffffffffffffffffffffffffffff1681565b60075473ffffffffffffffffffffffffffffffffffffffff1633146102fc57600080fd5b600555565b6000805460021161031157600080fd5b6000546001906002811061032157fe5b6002020192835550600191820155600080549091019055565b60055481565b60075473ffffffffffffffffffffffffffffffffffffffff1681565b80516020820151600091116103765750602082015161037a565b5081515b92915050565b61038861042f565b61039061042f565b61039861042f565b6103a061042f565b60006103aa61044a565b600091505b60005482101561042457600182600281106103c657fe5b60408051808201909152600291820292909201805480845260019091015460208401529192508590849081106103f857fe5b6020908102919091019190915281015183836002811061041457fe5b60200201526001909101906103af565b509194909350915050565b60408051808201825290600290829080388339509192915050565b6040805180820190915260008082526020820152905600a165627a7a72305820cf954f64f8ed791b4214bad047f199dfb34f0f31e9a73ca264e84a6aced567f60029a165627a7a723058201c6aa821becdf3e5c6e2abde69bffd221fd6b6599b72b341affa25eac4c3da650029",
  "source": "pragma solidity ^0.4.17; \nimport \"./MillionairesProblem.sol\";\n\ncontract MillionairesProblemFactory {\n\taddress public enigmaAddress; \n\taddress[] public millionairesProblems; \n\n\tconstructor(address _enigmaAddress) {\n\t\tenigmaAddress = _enigmaAddress; \n\t}\n\n    function createNewMillionairesProblem() public {\n        address newMillionairesProblem = new MillionairesProblem(enigmaAddress, msg.sender); \n        millionairesProblems.push(newMillionairesProblem); \n    }\n\n    function getMillionairesProblems() public returns (address[]) {\n        return millionairesProblems; \n    }\n}",
  "sourcePath": "/Users/adityapalepu/Startups/enigma/enigma-contract/contracts/MillionairesProblemFactory.sol",
  "compiler": {
    "name": "solc",
    "version": "0.4.24+commit.e67f0147.Emscripten.clang"
  },
  "schemaVersion": "2.0.0",
  "updatedAt": "2018-08-15T14:57:15.302Z"
}